{
  "abi": [
    {
      "inputs": [
        {
          "components": [
            {
              "internalType": "uint8",
              "name": "protocol",
              "type": "uint8"
            },
            {
              "internalType": "address",
              "name": "pool",
              "type": "address"
            },
            {
              "internalType": "address",
              "name": "tokenIn",
              "type": "address"
            },
            {
              "internalType": "address",
              "name": "tokenOut",
              "type": "address"
            },
            {
              "internalType": "uint24",
              "name": "fee",
              "type": "uint24"
            },
            {
              "internalType": "uint256",
              "name": "amount",
              "type": "uint256"
            }
          ],
          "internalType": "struct SimulatorV1.SwapParams[]",
          "name": "paramsArray",
          "type": "tuple[]"
        }
      ],
      "stateMutability": "nonpayable",
      "type": "constructor"
    },
    {
      "inputs": [],
      "name": "UNISWAP_V2_FACTORY",
      "outputs": [
        {
          "internalType": "address",
          "name": "",
          "type": "address"
        }
      ],
      "stateMutability": "view",
      "type": "function"
    },
    {
      "inputs": [],
      "name": "UNISWAP_V3_QUOTER2",
      "outputs": [
        {
          "internalType": "address",
          "name": "",
          "type": "address"
        }
      ],
      "stateMutability": "view",
      "type": "function"
    },
    {
      "inputs": [
        {
          "components": [
            {
              "internalType": "uint8",
              "name": "protocol",
              "type": "uint8"
            },
            {
              "internalType": "address",
              "name": "pool",
              "type": "address"
            },
            {
              "internalType": "address",
              "name": "tokenIn",
              "type": "address"
            },
            {
              "internalType": "address",
              "name": "tokenOut",
              "type": "address"
            },
            {
              "internalType": "uint24",
              "name": "fee",
              "type": "uint24"
            },
            {
              "internalType": "uint256",
              "name": "amount",
              "type": "uint256"
            }
          ],
          "internalType": "struct SimulatorV1.SwapParams",
          "name": "params",
          "type": "tuple"
        }
      ],
      "name": "simulateCurveSwapIn",
      "outputs": [
        {
          "internalType": "uint256",
          "name": "amountOut",
          "type": "uint256"
        }
      ],
      "stateMutability": "nonpayable",
      "type": "function"
    },
    {
      "inputs": [
        {
          "components": [
            {
              "internalType": "uint8",
              "name": "protocol",
              "type": "uint8"
            },
            {
              "internalType": "address",
              "name": "pool",
              "type": "address"
            },
            {
              "internalType": "address",
              "name": "tokenIn",
              "type": "address"
            },
            {
              "internalType": "address",
              "name": "tokenOut",
              "type": "address"
            },
            {
              "internalType": "uint24",
              "name": "fee",
              "type": "uint24"
            },
            {
              "internalType": "uint256",
              "name": "amount",
              "type": "uint256"
            }
          ],
          "internalType": "struct SimulatorV1.SwapParams",
          "name": "params",
          "type": "tuple"
        }
      ],
      "name": "simulateUniswapV2SwapIn",
      "outputs": [
        {
          "internalType": "uint256",
          "name": "amountOut",
          "type": "uint256"
        }
      ],
      "stateMutability": "view",
      "type": "function"
    },
    {
      "inputs": [
        {
          "components": [
            {
              "internalType": "uint8",
              "name": "protocol",
              "type": "uint8"
            },
            {
              "internalType": "address",
              "name": "pool",
              "type": "address"
            },
            {
              "internalType": "address",
              "name": "tokenIn",
              "type": "address"
            },
            {
              "internalType": "address",
              "name": "tokenOut",
              "type": "address"
            },
            {
              "internalType": "uint24",
              "name": "fee",
              "type": "uint24"
            },
            {
              "internalType": "uint256",
              "name": "amount",
              "type": "uint256"
            }
          ],
          "internalType": "struct SimulatorV1.SwapParams",
          "name": "params",
          "type": "tuple"
        }
      ],
      "name": "simulateUniswapV3SwapIn",
      "outputs": [
        {
          "internalType": "uint256",
          "name": "amountOut",
          "type": "uint256"
        }
      ],
      "stateMutability": "nonpayable",
      "type": "function"
    }
  ],
  "bytecode": {
    "object": "0x6080604052600080546001600160a01b0319908116735757371414417b8c6caad45baef941abc7d3ab3217909155600180549091167361ffe014ba17989e743c5f6cb21bf9697530b21e1790553480156200005957600080fd5b5060405162000beb38038062000beb8339810160408190526200007c916200091a565b8051600090815b8181101562000128576000848281518110620000a357620000a362000a52565b6020026020010151905083600003620000c3578060a001519350620000cb565b60a081018490525b805160ff16600003620000eb57620000e3816200015a565b93506200011e565b805160ff166001036200010357620000e381620001a6565b805160ff166002036200011e576200011b816200029c565b93505b5060010162000083565b506000826040516020016200013f91815260200190565b60405160208183030381529060405290506020810181518082f35b60008054604083015160608401518392839262000183926001600160a01b03909216916200042a565b915091506200019e8460a001518383620004fc60201b60201c565b949350505050565b6001546040805160a08082018352600080835260208301818152838501828152606080860184815260808088018681528b8a01516001600160a01b039081168a52938c015184168652968b015184528a015162ffffff90811682529751636352813560e11b81528751831660048201529351821660248501529151604484015290519095166064820152915184166084830152939290921691829063c6a5026a9060a4016080604051808303816000875af11580156200026a573d6000803e3d6000fd5b505050506040513d601f19601f8201168201806040525081019062000290919062000a7d565b50919695505050505050565b60208101516000908180805b81600f0b83600f0b03620003945760405163046e8dd760e31b8152600f82900b60048201526000906001600160a01b038616906323746eb8906024016020604051808303816000875af115801562000304573d6000803e3d6000fd5b505050506040513d601f19601f820116820180604052508101906200032a919062000ac8565b905086604001516001600160a01b0316816001600160a01b031603620003535781935062000375565b86606001516001600160a01b0316816001600160a01b03160362000375578192505b82600f0b84600f0b146200038a575062000394565b50600101620002a8565b602086015160a0870151604051635e0d443f60e01b8152600f86810b600483015285900b602482015260448101919091526001600160a01b0390911690635e0d443f906064016020604051808303816000875af1158015620003fa573d6000803e3d6000fd5b505050506040513d601f19601f8201168201806040525081019062000420919062000aef565b9695505050505050565b600080806200043a85856200062e565b5090506000806200044d8888886200072b565b6001600160a01b0316630902f1ac6040518163ffffffff1660e01b8152600401606060405180830381865afa1580156200048b573d6000803e3d6000fd5b505050506040513d601f19601f82011682018060405250810190620004b1919062000b21565b506001600160701b031691506001600160701b03169150826001600160a01b0316876001600160a01b031614620004ea578082620004ed565b81815b90999098509650505050505050565b6000808411620005675760405162461bcd60e51b815260206004820152602b60248201527f556e697377617056324c6962726172793a20494e53554646494349454e545f4960448201526a1394155517d05353d5539560aa1b60648201526084015b60405180910390fd5b600083118015620005785750600082115b620005d75760405162461bcd60e51b815260206004820152602860248201527f556e697377617056324c6962726172793a20494e53554646494349454e545f4c604482015267495155494449545960c01b60648201526084016200055e565b6000620005e7856103e5620007ff565b90506000620005f78285620007ff565b9050600062000615836200060e886103e8620007ff565b9062000844565b905062000623818362000b81565b979650505050505050565b600080826001600160a01b0316846001600160a01b031603620006a25760405162461bcd60e51b815260206004820152602560248201527f556e697377617056324c6962726172793a204944454e544943414c5f41444452604482015264455353455360d81b60648201526084016200055e565b826001600160a01b0316846001600160a01b031610620006c4578284620006c7565b83835b90925090506001600160a01b038216620007245760405162461bcd60e51b815260206004820152601e60248201527f556e697377617056324c6962726172793a205a45524f5f41444452455353000060448201526064016200055e565b9250929050565b600080806200073b85856200062e565b604080516001600160601b0319606094851b811660208084019190915293851b81166034830152825180830360280181526048830184528051908501207fff0000000000000000000000000000000000000000000000000000000000000060688401529a90941b9093166069840152607d8301989098527f96e8ac4277198ff8b6f785478aa9a39f403cb768dd02cbee326c3e7da348845f609d808401919091528851808403909101815260bd909201909752805196019590952095945050505050565b60008260000362000813575060006200083e565b6200081f828462000ba4565b9050816200082e848362000b81565b146200083e576200083e62000bbe565b92915050565b600062000852828462000bd4565b9050828110156200083e576200083e62000bbe565b634e487b7160e01b600052604160045260246000fd5b60405160c081016001600160401b0381118282101715620008a257620008a262000867565b60405290565b604051601f8201601f191681016001600160401b0381118282101715620008d357620008d362000867565b604052919050565b6001600160a01b0381168114620008f157600080fd5b50565b80516200090181620008db565b919050565b805162ffffff811681146200090157600080fd5b600060208083850312156200092e57600080fd5b82516001600160401b03808211156200094657600080fd5b818501915085601f8301126200095b57600080fd5b81518181111562000970576200097062000867565b62000980848260051b01620008a8565b818152848101925060c0918202840185019188831115620009a057600080fd5b938501935b8285101562000a465780858a031215620009bf5760008081fd5b620009c96200087d565b855160ff81168114620009dc5760008081fd5b815285870151620009ed81620008db565b8188015260408681015162000a0281620008db565b90820152606062000a15878201620008f4565b90820152608062000a2887820162000906565b9082015260a0868101519082015284529384019392850192620009a5565b50979650505050505050565b634e487b7160e01b600052603260045260246000fd5b805163ffffffff811681146200090157600080fd5b6000806000806080858703121562000a9457600080fd5b84519350602085015162000aa881620008db565b925062000ab86040860162000a68565b6060959095015193969295505050565b60006020828403121562000adb57600080fd5b815162000ae881620008db565b9392505050565b60006020828403121562000b0257600080fd5b5051919050565b80516001600160701b03811681146200090157600080fd5b60008060006060848603121562000b3757600080fd5b62000b428462000b09565b925062000b526020850162000b09565b915062000b626040850162000a68565b90509250925092565b634e487b7160e01b600052601160045260246000fd5b60008262000b9f57634e487b7160e01b600052601260045260246000fd5b500490565b80820281158282048414176200083e576200083e62000b6b565b634e487b7160e01b600052600160045260246000fd5b808201808211156200083e576200083e62000b6b56fe",
    "linkReferences": {}
  },
  "deployedBytecode": {
    "object": "0x608060405234801561001057600080fd5b50600436106100575760003560e01c8063766370281461005c57806388d9ef7e1461008257806388dbf051146100ad5780638e888ccc146100c057806399d8fae3146100d3575b600080fd5b61006f61006a3660046107eb565b6100e6565b6040519081526020015b60405180910390f35b600154610095906001600160a01b031681565b6040516001600160a01b039091168152602001610079565b61006f6100bb3660046107eb565b61012c565b61006f6100ce3660046107eb565b6102ad565b600054610095906001600160a01b031681565b600080600061011160008054906101000a90046001600160a01b0316856040015186606001516103a0565b915091506101248460a00151838361046a565b949350505050565b60208101516000908180805b81600f0b83600f0b0361021a5760405163046e8dd760e31b8152600f82900b60048201526000906001600160a01b038616906323746eb8906024016020604051808303816000875af1158015610192573d6000803e3d6000fd5b505050506040513d601f19601f820116820180604052508101906101b69190610894565b905086604001516001600160a01b0316816001600160a01b0316036101dd578193506101fe565b86606001516001600160a01b0316816001600160a01b0316036101fe578192505b82600f0b84600f0b14610211575061021a565b50600101610138565b602086015160a0870151604051635e0d443f60e01b8152600f86810b600483015285900b602482015260448101919091526001600160a01b0390911690635e0d443f906064016020604051808303816000875af115801561027f573d6000803e3d6000fd5b505050506040513d601f19601f820116820180604052508101906102a391906108b8565b9695505050505050565b6001546040805160a08082018352600080835260208301818152838501828152606080860184815260808088018681528b8a01516001600160a01b039081168a52938c015184168652968b015184528a015162ffffff90811682529751636352813560e11b81528751831660048201529351821660248501529151604484015290519095166064820152915184166084830152939290921691829063c6a5026a9060a4016080604051808303816000875af1158015610370573d6000803e3d6000fd5b505050506040513d601f19601f8201168201806040525081019061039491906108e5565b50919695505050505050565b60008060006103af858561058e565b5090506000806103c0888888610685565b6001600160a01b0316630902f1ac6040518163ffffffff1660e01b8152600401606060405180830381865afa1580156103fd573d6000803e3d6000fd5b505050506040513d601f19601f820116820180604052508101906104219190610942565b506001600160701b031691506001600160701b03169150826001600160a01b0316876001600160a01b03161461045857808261045b565b81815b90999098509650505050505050565b60008084116104d45760405162461bcd60e51b815260206004820152602b60248201527f556e697377617056324c6962726172793a20494e53554646494349454e545f4960448201526a1394155517d05353d5539560aa1b60648201526084015b60405180910390fd5b6000831180156104e45750600082115b6105415760405162461bcd60e51b815260206004820152602860248201527f556e697377617056324c6962726172793a20494e53554646494349454e545f4c604482015267495155494449545960c01b60648201526084016104cb565b600061054f856103e5610745565b9050600061055d8285610745565b9050600061057783610571886103e8610745565b90610781565b9050610583818361099b565b979650505050505050565b600080826001600160a01b0316846001600160a01b0316036106005760405162461bcd60e51b815260206004820152602560248201527f556e697377617056324c6962726172793a204944454e544943414c5f41444452604482015264455353455360d81b60648201526084016104cb565b826001600160a01b0316846001600160a01b031610610620578284610623565b83835b90925090506001600160a01b03821661067e5760405162461bcd60e51b815260206004820152601e60248201527f556e697377617056324c6962726172793a205a45524f5f41444452455353000060448201526064016104cb565b9250929050565b6000806000610694858561058e565b604080516bffffffffffffffffffffffff19606094851b811660208084019190915293851b81166034830152825180830360280181526048830184528051908501206001600160f81b031960688401529a90941b9093166069840152607d8301989098527f96e8ac4277198ff8b6f785478aa9a39f403cb768dd02cbee326c3e7da348845f609d808401919091528851808403909101815260bd909201909752805196019590952095945050505050565b6000826000036107575750600061077b565b61076182846109bd565b90508161076e848361099b565b1461077b5761077b6109d4565b92915050565b600061078d82846109ea565b90508281101561077b5761077b6109d4565b803560ff811681146107b057600080fd5b919050565b6001600160a01b03811681146107ca57600080fd5b50565b80356107b0816107b5565b803562ffffff811681146107b057600080fd5b600060c082840312156107fd57600080fd5b60405160c0810181811067ffffffffffffffff8211171561082e57634e487b7160e01b600052604160045260246000fd5b60405261083a8361079f565b8152610848602084016107cd565b6020820152610859604084016107cd565b604082015261086a606084016107cd565b606082015261087b608084016107d8565b608082015260a083013560a08201528091505092915050565b6000602082840312156108a657600080fd5b81516108b1816107b5565b9392505050565b6000602082840312156108ca57600080fd5b5051919050565b805163ffffffff811681146107b057600080fd5b600080600080608085870312156108fb57600080fd5b84519350602085015161090d816107b5565b925061091b604086016108d1565b6060959095015193969295505050565b80516001600160701b03811681146107b057600080fd5b60008060006060848603121561095757600080fd5b6109608461092b565b925061096e6020850161092b565b915061097c604085016108d1565b90509250925092565b634e487b7160e01b600052601160045260246000fd5b6000826109b857634e487b7160e01b600052601260045260246000fd5b500490565b808202811582820484141761077b5761077b610985565b634e487b7160e01b600052600160045260246000fd5b8082018082111561077b5761077b61098556fea2646970667358221220002fcbd79b4018cb1b0a6ee6b02535c62427dbcc4482132abc0226ab377a643364736f6c63430008150033",
    "linkReferences": {}
  },
  "methodIdentifiers": {
    "UNISWAP_V2_FACTORY()": "99d8fae3",
    "UNISWAP_V3_QUOTER2()": "88d9ef7e",
    "simulateCurveSwapIn((uint8,address,address,address,uint24,uint256))": "88dbf051",
    "simulateUniswapV2SwapIn((uint8,address,address,address,uint24,uint256))": "76637028",
    "simulateUniswapV3SwapIn((uint8,address,address,address,uint24,uint256))": "8e888ccc"
  },
  "id": 3
}