{
  "abi": [
    {
      "inputs": [],
      "stateMutability": "nonpayable",
      "type": "constructor"
    },
    {
      "inputs": [],
      "name": "UNISWAP_V2_FACTORY",
      "outputs": [
        {
          "internalType": "address",
          "name": "",
          "type": "address"
        }
      ],
      "stateMutability": "view",
      "type": "function"
    },
    {
      "inputs": [],
      "name": "UNISWAP_V3_QUOTER2",
      "outputs": [
        {
          "internalType": "address",
          "name": "",
          "type": "address"
        }
      ],
      "stateMutability": "view",
      "type": "function"
    },
    {
      "inputs": [
        {
          "components": [
            {
              "internalType": "uint8",
              "name": "protocol",
              "type": "uint8"
            },
            {
              "internalType": "address",
              "name": "pool",
              "type": "address"
            },
            {
              "internalType": "address",
              "name": "tokenIn",
              "type": "address"
            },
            {
              "internalType": "address",
              "name": "tokenOut",
              "type": "address"
            },
            {
              "internalType": "uint24",
              "name": "fee",
              "type": "uint24"
            },
            {
              "internalType": "uint256",
              "name": "amount",
              "type": "uint256"
            }
          ],
          "internalType": "struct SimulatorV1.SwapParams",
          "name": "params",
          "type": "tuple"
        }
      ],
      "name": "simulateCurveSwapIn",
      "outputs": [
        {
          "internalType": "uint256",
          "name": "amountOut",
          "type": "uint256"
        }
      ],
      "stateMutability": "nonpayable",
      "type": "function"
    },
    {
      "inputs": [
        {
          "components": [
            {
              "internalType": "uint8",
              "name": "protocol",
              "type": "uint8"
            },
            {
              "internalType": "address",
              "name": "pool",
              "type": "address"
            },
            {
              "internalType": "address",
              "name": "tokenIn",
              "type": "address"
            },
            {
              "internalType": "address",
              "name": "tokenOut",
              "type": "address"
            },
            {
              "internalType": "uint24",
              "name": "fee",
              "type": "uint24"
            },
            {
              "internalType": "uint256",
              "name": "amount",
              "type": "uint256"
            }
          ],
          "internalType": "struct SimulatorV1.SwapParams[]",
          "name": "paramsArray",
          "type": "tuple[]"
        }
      ],
      "name": "simulateSwapIn",
      "outputs": [
        {
          "internalType": "uint256",
          "name": "",
          "type": "uint256"
        }
      ],
      "stateMutability": "nonpayable",
      "type": "function"
    },
    {
      "inputs": [
        {
          "components": [
            {
              "internalType": "uint8",
              "name": "protocol",
              "type": "uint8"
            },
            {
              "internalType": "address",
              "name": "pool",
              "type": "address"
            },
            {
              "internalType": "address",
              "name": "tokenIn",
              "type": "address"
            },
            {
              "internalType": "address",
              "name": "tokenOut",
              "type": "address"
            },
            {
              "internalType": "uint24",
              "name": "fee",
              "type": "uint24"
            },
            {
              "internalType": "uint256",
              "name": "amount",
              "type": "uint256"
            }
          ],
          "internalType": "struct SimulatorV1.SwapParams",
          "name": "params",
          "type": "tuple"
        }
      ],
      "name": "simulateUniswapV2SwapIn",
      "outputs": [
        {
          "internalType": "uint256",
          "name": "amountOut",
          "type": "uint256"
        }
      ],
      "stateMutability": "nonpayable",
      "type": "function"
    },
    {
      "inputs": [
        {
          "components": [
            {
              "internalType": "uint8",
              "name": "protocol",
              "type": "uint8"
            },
            {
              "internalType": "address",
              "name": "pool",
              "type": "address"
            },
            {
              "internalType": "address",
              "name": "tokenIn",
              "type": "address"
            },
            {
              "internalType": "address",
              "name": "tokenOut",
              "type": "address"
            },
            {
              "internalType": "uint24",
              "name": "fee",
              "type": "uint24"
            },
            {
              "internalType": "uint256",
              "name": "amount",
              "type": "uint256"
            }
          ],
          "internalType": "struct SimulatorV1.SwapParams",
          "name": "params",
          "type": "tuple"
        }
      ],
      "name": "simulateUniswapV3SwapIn",
      "outputs": [
        {
          "internalType": "uint256",
          "name": "amountOut",
          "type": "uint256"
        }
      ],
      "stateMutability": "nonpayable",
      "type": "function"
    }
  ],
  "bytecode": {
    "object": "0x6080604052600080546001600160a01b0319908116735757371414417b8c6caad45baef941abc7d3ab3217909155600180549091167361ffe014ba17989e743c5f6cb21bf9697530b21e17905534801561005857600080fd5b50610c0d806100686000396000f3fe608060405234801561001057600080fd5b50600436106100625760003560e01c806355abbafc14610067578063766370281461008d57806388d9ef7e146100a057806388dbf051146100cb5780638e888ccc146100de57806399d8fae3146100f1575b600080fd5b61007a61007536600461098c565b610104565b6040519081526020015b60405180910390f35b61007a61009b366004610a3c565b6101aa565b6001546100b3906001600160a01b031681565b6040516001600160a01b039091168152602001610084565b61007a6100d9366004610a3c565b6101f0565b61007a6100ec366004610a3c565b610371565b6000546100b3906001600160a01b031681565b80516000908190815b818110156101a157600085828151811061012957610129610a5f565b6020026020010151905083600003610147578060a00151935061014f565b60a081018490525b805160ff1660000361016b57610164816101aa565b9350610198565b805160ff166001036101805761016481610371565b805160ff1660020361019857610195816101f0565b93505b5060010161010d565b50909392505050565b60008060006101d560008054906101000a90046001600160a01b031685604001518660600151610464565b915091506101e88460a00151838361052e565b949350505050565b60208101516000908180805b81600f0b83600f0b036102de5760405163046e8dd760e31b8152600f82900b60048201526000906001600160a01b038616906323746eb8906024016020604051808303816000875af1158015610256573d6000803e3d6000fd5b505050506040513d601f19601f8201168201806040525081019061027a9190610a75565b905086604001516001600160a01b0316816001600160a01b0316036102a1578193506102c2565b86606001516001600160a01b0316816001600160a01b0316036102c2578192505b82600f0b84600f0b146102d557506102de565b506001016101fc565b602086015160a0870151604051635e0d443f60e01b8152600f86810b600483015285900b602482015260448101919091526001600160a01b0390911690635e0d443f906064016020604051808303816000875af1158015610343573d6000803e3d6000fd5b505050506040513d601f19601f820116820180604052508101906103679190610a92565b9695505050505050565b6001546040805160a08082018352600080835260208301818152838501828152606080860184815260808088018681528b8a01516001600160a01b039081168a52938c015184168652968b015184528a015162ffffff90811682529751636352813560e11b81528751831660048201529351821660248501529151604484015290519095166064820152915184166084830152939290921691829063c6a5026a9060a4016080604051808303816000875af1158015610434573d6000803e3d6000fd5b505050506040513d601f19601f820116820180604052508101906104589190610abf565b50919695505050505050565b60008060006104738585610652565b509050600080610484888888610749565b6001600160a01b0316630902f1ac6040518163ffffffff1660e01b8152600401606060405180830381865afa1580156104c1573d6000803e3d6000fd5b505050506040513d601f19601f820116820180604052508101906104e59190610b1c565b506001600160701b031691506001600160701b03169150826001600160a01b0316876001600160a01b03161461051c57808261051f565b81815b90999098509650505050505050565b60008084116105985760405162461bcd60e51b815260206004820152602b60248201527f556e697377617056324c6962726172793a20494e53554646494349454e545f4960448201526a1394155517d05353d5539560aa1b60648201526084015b60405180910390fd5b6000831180156105a85750600082115b6106055760405162461bcd60e51b815260206004820152602860248201527f556e697377617056324c6962726172793a20494e53554646494349454e545f4c604482015267495155494449545960c01b606482015260840161058f565b6000610613856103e5610809565b905060006106218285610809565b9050600061063b83610635886103e8610809565b90610845565b90506106478183610b75565b979650505050505050565b600080826001600160a01b0316846001600160a01b0316036106c45760405162461bcd60e51b815260206004820152602560248201527f556e697377617056324c6962726172793a204944454e544943414c5f41444452604482015264455353455360d81b606482015260840161058f565b826001600160a01b0316846001600160a01b0316106106e45782846106e7565b83835b90925090506001600160a01b0382166107425760405162461bcd60e51b815260206004820152601e60248201527f556e697377617056324c6962726172793a205a45524f5f414444524553530000604482015260640161058f565b9250929050565b60008060006107588585610652565b604080516bffffffffffffffffffffffff19606094851b811660208084019190915293851b81166034830152825180830360280181526048830184528051908501206001600160f81b031960688401529a90941b9093166069840152607d8301989098527f96e8ac4277198ff8b6f785478aa9a39f403cb768dd02cbee326c3e7da348845f609d808401919091528851808403909101815260bd909201909752805196019590952095945050505050565b60008260000361081b5750600061083f565b6108258284610b97565b9050816108328483610b75565b1461083f5761083f610bae565b92915050565b60006108518284610bc4565b90508281101561083f5761083f610bae565b634e487b7160e01b600052604160045260246000fd5b604051601f8201601f1916810167ffffffffffffffff811182821017156108a2576108a2610863565b604052919050565b6001600160a01b03811681146108bf57600080fd5b50565b80356108cd816108aa565b919050565b803562ffffff811681146108cd57600080fd5b600060c082840312156108f757600080fd5b60405160c0810181811067ffffffffffffffff8211171561091a5761091a610863565b604052905080823560ff8116811461093157600080fd5b81526020830135610941816108aa565b60208201526040830135610954816108aa565b6040820152610965606084016108c2565b6060820152610976608084016108d2565b608082015260a083013560a08201525092915050565b6000602080838503121561099f57600080fd5b823567ffffffffffffffff808211156109b757600080fd5b818501915085601f8301126109cb57600080fd5b8135818111156109dd576109dd610863565b6109eb848260051b01610879565b818152848101925060c0918202840185019188831115610a0a57600080fd5b938501935b82851015610a3057610a2189866108e5565b84529384019392850192610a0f565b50979650505050505050565b600060c08284031215610a4e57600080fd5b610a5883836108e5565b9392505050565b634e487b7160e01b600052603260045260246000fd5b600060208284031215610a8757600080fd5b8151610a58816108aa565b600060208284031215610aa457600080fd5b5051919050565b805163ffffffff811681146108cd57600080fd5b60008060008060808587031215610ad557600080fd5b845193506020850151610ae7816108aa565b9250610af560408601610aab565b6060959095015193969295505050565b80516001600160701b03811681146108cd57600080fd5b600080600060608486031215610b3157600080fd5b610b3a84610b05565b9250610b4860208501610b05565b9150610b5660408501610aab565b90509250925092565b634e487b7160e01b600052601160045260246000fd5b600082610b9257634e487b7160e01b600052601260045260246000fd5b500490565b808202811582820484141761083f5761083f610b5f565b634e487b7160e01b600052600160045260246000fd5b8082018082111561083f5761083f610b5f56fea2646970667358221220d3cf770d70a0859852aa4dede6e863c9a0d42cd3380d9feedbce104ac66dc60864736f6c63430008150033",
    "linkReferences": {}
  },
  "methodIdentifiers": {
    "UNISWAP_V2_FACTORY()": "99d8fae3",
    "UNISWAP_V3_QUOTER2()": "88d9ef7e",
    "simulateCurveSwapIn((uint8,address,address,address,uint24,uint256))": "88dbf051",
    "simulateSwapIn((uint8,address,address,address,uint24,uint256)[])": "55abbafc",
    "simulateUniswapV2SwapIn((uint8,address,address,address,uint24,uint256))": "76637028",
    "simulateUniswapV3SwapIn((uint8,address,address,address,uint24,uint256))": "8e888ccc"
  },
  "id": 3
}