{
  "abi": [
    {
      "inputs": [
        {
          "internalType": "address[]",
          "name": "pools",
          "type": "address[]"
        },
        {
          "internalType": "address[]",
          "name": "dexes",
          "type": "address[]"
        },
        {
          "internalType": "bool[]",
          "name": "dexIsUniV3",
          "type": "bool[]"
        },
        {
          "internalType": "address",
          "name": "weth",
          "type": "address"
        },
        {
          "internalType": "uint256",
          "name": "wethInPoolThreshold",
          "type": "uint256"
        }
      ],
      "stateMutability": "nonpayable",
      "type": "constructor"
    },
    {
      "inputs": [
        {
          "internalType": "address",
          "name": "",
          "type": "address"
        }
      ],
      "name": "tokenToWethPrices",
      "outputs": [
        {
          "internalType": "uint128",
          "name": "",
          "type": "uint128"
        }
      ],
      "stateMutability": "view",
      "type": "function"
    }
  ],
  "bytecode": {
    "object": "0x60806040523480156200001157600080fd5b5060405162001902380380620019028339810160408190526200003491620013d1565b600085516001600160401b03811115620000525762000052620012ad565b6040519080825280602002602001820160405280156200007c578160200160208202803683370190505b50905060005b86518110156200038357620000b9878281518110620000a557620000a5620014e3565b6020026020010151620003b460201b60201c565b15620000e8576000828281518110620000d657620000d6620014e3565b60200260200101818152505062000370565b62000115878281518110620001015762000101620014e3565b60200260200101516200044c60201b60201c565b6200034c576000878281518110620001315762000131620014e3565b60200260200101516001600160a01b0316630dfe16816040518163ffffffff1660e01b8152600401602060405180830381865afa15801562000177573d6000803e3d6000fd5b505050506040513d601f19601f820116820180604052508101906200019d9190620014f9565b90506000888381518110620001b657620001b6620014e3565b60200260200101516001600160a01b031663d21220a76040518163ffffffff1660e01b8152600401602060405180830381865afa158015620001fc573d6000803e3d6000fd5b505050506040513d601f19601f82011682018060405250810190620002229190620014f9565b90506200022f826200044c565b15801562000245575062000243816200044c565b155b1562000320576000806200027d8b8681518110620002675762000267620014e3565b602002602001015185856200046e60201b60201c565b9092509050600062000294858a858e8e8d620004e3565b90506000620002a8858b858f8f8e620004e3565b90508115801590620002b957508015155b15620002f257620002cb81836200152f565b888881518110620002e057620002e0620014e3565b60200260200101818152505062000316565b6000888881518110620003095762000309620014e3565b6020026020010181815250505b5050505062000344565b6000848481518110620003375762000337620014e3565b6020026020010181815250505b505062000370565b6000828281518110620003635762000363620014e3565b6020026020010181815250505b6200037b8162001545565b905062000082565b5060008160405160200162000399919062001561565b60405160208183030381529060405290506020810181518082f35b6000620003c1826200060d565b6200044457816001600160a01b0316631a6865026040518163ffffffff1660e01b8152600401602060405180830381865afa15801562000405573d6000803e3d6000fd5b505050506040513d601f19601f820116820180604052508101906200042b9190620015a7565b6001600160801b03166000036200044457506001919050565b506000919050565b6000816001600160a01b03163b6000036200044457506001919050565b919050565b6000808080620004808787876200062e565b91509150620004d58282876001600160a01b0316896001600160a01b031610620004ab5787620004ad565b885b886001600160a01b03168a6001600160a01b031610620004ce578962000768565b8862000768565b935093505050935093915050565b6000856001600160a01b0316876001600160a01b0316036200050757508362000603565b6001600160a01b0387166000908152602081905260409020546001600160801b031660018190036200053e57600091505062000603565b6001600160801b0381161562000563576200055a818762000870565b91505062000603565b60005b8551811015620005fc576000620005bf8a8a8985815181106200058d576200058d620014e3565b6020026020010151898681518110620005aa57620005aa620014e3565b6020026020010151896200096d60201b60201c565b90506001600160801b03811615620005e857620005dd818962000870565b935050505062000603565b50620005f48162001545565b905062000566565b5060009150505b9695505050505050565b60008063ddca3f4360e01b6000526000806004600080875af1159392505050565b600080826001600160a01b0316846001600160a01b0316106200065357828462000656565b83835b909450925060008062000669876200060d565b15620006f157600080886001600160a01b0316630902f1ac6040518163ffffffff1660e01b8152600401606060405180830381865afa158015620006b1573d6000803e3d6000fd5b505050506040513d601f19601f82011682018060405250810190620006d79190620015ea565b506001600160701b0391821695501692506200075c915050565b60008062000700888a62000c14565b909250905060008062000714898c62000c14565b91509150828015620007235750805b156200075757886001600160a01b03168a6001600160a01b03161015620007505783955081945062000757565b8394508195505b505050505b90969095509350505050565b6000808080620007788662000d10565b90925090506000806200078b8762000d10565b915091508280156200079a5750805b15620008635760128460ff161115620007d957620007ba60128562001640565b620007c790600a62001759565b620007d3908b62001780565b620007ff565b620007e684601262001640565b620007f390600a62001759565b620007ff908b620017a3565b955060128260ff1611156200083a576200081b60128362001640565b6200082890600a62001759565b62000834908a62001780565b62000860565b6200084782601262001640565b6200085490600a62001759565b62000860908a620017a3565b94505b5050505094509492505050565b60008115806200088757506001600160801b038316155b15620008965750600062000967565b6001600160801b03838116908316810260401c90608084901c026001600160c01b038111156200090d5760405162461bcd60e51b815260206004820152601460248201527f6f766572666c6f772d3020696e206d756c36347500000000000000000000000060448201526064015b60405180910390fd5b60401b8119811115620009635760405162461bcd60e51b815260206004820152601460248201527f6f766572666c6f772d3120696e206d756c363475000000000000000000000000604482015260640162000904565b0190505b92915050565b6000821562000af157604080516060810182526101f48152610bb860208201526127109181019190915260005b600381101562000ae9576000866001600160a01b0316631698ee82896001600160a01b03168b6001600160a01b031610620009d65789620009d8565b8a5b8a6001600160a01b03168c6001600160a01b031610620009f9578b620009fb565b8a5b86866003811062000a105762000a10620014e3565b60200201516040516001600160e01b031960e086901b1681526001600160a01b03938416600482015292909116602483015261ffff166044820152606401602060405180830381865afa15801562000a6c573d6000803e3d6000fd5b505050506040513d601f19601f8201168201806040525081019062000a929190620014f9565b90506001600160a01b0381161562000ad557600062000ab5878b8b858a62000e16565b90506001600160801b0381161562000ad357935062000c0b92505050565b505b5062000ae18162001545565b90506200099a565b505062000be0565b6001600160a01b038086168782161090600090861663e6a439058362000b18578862000b1a565b895b8462000b27578a62000b29565b895b6040516001600160e01b031960e085901b1681526001600160a01b03928316600482015291166024820152604401602060405180830381865afa15801562000b75573d6000803e3d6000fd5b505050506040513d601f19601f8201168201806040525081019062000b9b9190620014f9565b90506001600160a01b0381161562000bdd57600062000bbe868a8a858962000e16565b90506001600160801b0381161562000bdb57925062000c0b915050565b505b50505b506001600160a01b038516600090815260208190526040812080546001600160801b03191660011790555b95945050505050565b6040516001600160a01b03828116602483015260009182918291829187169060440160408051601f198184030181529181526020820180516001600160e01b03166370a0823160e01b1790525162000c6d9190620017bd565b6000604051808303816000865af19150503d806000811462000cac576040519150601f19603f3d011682016040523d82523d6000602084013e62000cb1565b606091505b5091509150811562000cff576000815160200362000cef578180602001905181019062000cdf9190620017ee565b94506001935062000d0992505050565b6000809450945050505062000d09565b6000809350935050505b9250929050565b60408051600481526024810182526020810180516001600160e01b031663313ce56760e01b17905290516000918291829182916001600160a01b0387169162000d5991620017bd565b6000604051808303816000865af19150503d806000811462000d98576040519150601f19603f3d011682016040523d82523d6000602084013e62000d9d565b606091505b5091509150811562000e09576000815160200362000dfb578180602001905181019062000dcb9190620017ee565b905080158062000ddb575060ff81115b1562000def57506000958695509350505050565b95600195509350505050565b506000958695509350505050565b5060009485945092505050565b60006001600160a01b03808516908616108662000eab5760008062000e3d8689896200046e565b91509150821562000e64578481101562000e5e576000935050505062000c0b565b62000e7a565b8482101562000e7a576000935050505062000c0b565b62000ea18362000e8b578262000e8d565b815b8462000e9a578262000f73565b8362000f73565b9350505062000f36565b6000846001600160a01b0316633850c7bd6040518163ffffffff1660e01b815260040160e060405180830381865afa15801562000eec573d6000803e3d6000fd5b505050506040513d601f19601f8201168201806040525081019062000f1291906200182d565b5050505050509050604062000f3082848a8a6200110a60201b60201c565b901c9250505b506001600160a01b038516600090815260208190526040902080546001600160801b0383166001600160801b031990911617905595945050505050565b60008160000362000f875750600062000967565b60006001600160c01b03841162000fb75782604085901b8162000fae5762000fae6200176a565b049050620010e8565b60c084811c640100000000811062000fd1576020918201911c5b62010000811062000fe4576010918201911c5b610100811062000ff6576008918201911c5b6010811062001007576004918201911c5b6004811062001018576002918201911c5b6002811062001028576001820191505b60bf820360018603901c6001018260ff0387901b816200104c576200104c6200176a565b0492506001600160801b038311156200106c576000935050505062000967565b608085901c83026001600160801b038616840260c088901c604089901b8281101562001099576001820391505b608084901b92900382811015620010b1576001820391505b829003608084901c8214620010ca57620010ca620018cd565b888181620010dc57620010dc6200176a565b04870196505050505050505b6001600160801b038111156200110357600091505062000967565b9392505050565b600080826001600160a01b031663313ce5676040518163ffffffff1660e01b8152600401602060405180830381865afa1580156200114c573d6000803e3d6000fd5b505050506040513d601f19601f82011682018060405250810190620011729190620018e3565b846001600160a01b031663313ce5676040518163ffffffff1660e01b8152600401602060405180830381865afa158015620011b1573d6000803e3d6000fd5b505050506040513d601f19601f82011682018060405250810190620011d79190620018e3565b0390506000808260000b1262001202578160ff16600a0a6002886001600160a01b03160a026200122b565b8160000360ff16600a0a6002886001600160a01b03160a816200122957620012296200176a565b045b905060008662001267576c010000000000000000000000008204600160601b600160e01b03816200126057620012606200176a565b0462001278565b6c0100000000000000000000000082045b905086620012875780620012a1565b6c010000000000000000000000006001600160801b038202045b98975050505050505050565b634e487b7160e01b600052604160045260246000fd5b604051601f8201601f191681016001600160401b0381118282101715620012ee57620012ee620012ad565b604052919050565b60006001600160401b03821115620013125762001312620012ad565b5060051b60200190565b6001600160a01b03811681146200133257600080fd5b50565b805162000469816200131c565b600082601f8301126200135457600080fd5b815160206200136d6200136783620012f6565b620012c3565b82815260059290921b840181019181810190868411156200138d57600080fd5b8286015b84811015620013b5578051620013a7816200131c565b835291830191830162001391565b509695505050505050565b805180151581146200046957600080fd5b600080600080600060a08688031215620013ea57600080fd5b85516001600160401b03808211156200140257600080fd5b6200141089838a0162001342565b96506020915081880151818111156200142857600080fd5b620014368a828b0162001342565b9650506040880151818111156200144c57600080fd5b88019050601f810189136200146057600080fd5b8051620014716200136782620012f6565b81815260059190911b8201830190838101908b8311156200149157600080fd5b928401925b82841015620014ba57620014aa84620013c0565b8252928401929084019062001496565b8097505050505050620014d06060870162001335565b9150608086015190509295509295909350565b634e487b7160e01b600052603260045260246000fd5b6000602082840312156200150c57600080fd5b815162001103816200131c565b634e487b7160e01b600052601160045260246000fd5b8082018082111562000967576200096762001519565b6000600182016200155a576200155a62001519565b5060010190565b6020808252825182820181905260009190848201906040850190845b818110156200159b578351835292840192918401916001016200157d565b50909695505050505050565b600060208284031215620015ba57600080fd5b81516001600160801b03811681146200110357600080fd5b80516001600160701b03811681146200046957600080fd5b6000806000606084860312156200160057600080fd5b6200160b84620015d2565b92506200161b60208501620015d2565b9150604084015163ffffffff811681146200163557600080fd5b809150509250925092565b60ff828116828216039081111562000967576200096762001519565b600181815b808511156200169d57816000190482111562001681576200168162001519565b808516156200168f57918102915b93841c939080029062001661565b509250929050565b600082620016b65750600162000967565b81620016c55750600062000967565b8160018114620016de5760028114620016e95762001709565b600191505062000967565b60ff841115620016fd57620016fd62001519565b50506001821b62000967565b5060208310610133831016604e8410600b84101617156200172e575081810a62000967565b6200173a83836200165c565b806000190482111562001751576200175162001519565b029392505050565b60006200110360ff841683620016a5565b634e487b7160e01b600052601260045260246000fd5b6000826200179e57634e487b7160e01b600052601260045260246000fd5b500490565b808202811582820484141762000967576200096762001519565b6000825160005b81811015620017e05760208186018101518583015201620017c4565b506000920191825250919050565b6000602082840312156200180157600080fd5b5051919050565b805161ffff811681146200046957600080fd5b805160ff811681146200046957600080fd5b600080600080600080600060e0888a0312156200184957600080fd5b875162001856816200131c565b8097505060208801518060020b81146200186f57600080fd5b95506200187f6040890162001808565b94506200188f6060890162001808565b93506200189f6080890162001808565b9250620018af60a089016200181b565b9150620018bf60c08901620013c0565b905092959891949750929550565b634e487b7160e01b600052600160045260246000fd5b600060208284031215620018f657600080fd5b62001103826200181b56fe",
    "linkReferences": {}
  },
  "deployedBytecode": {
    "object": "0x6080604052348015600f57600080fd5b506004361060285760003560e01c80630ed45c8e14602d575b600080fd5b60536038366004606f565b6000602081905290815260409020546001600160801b031681565b6040516001600160801b03909116815260200160405180910390f35b600060208284031215608057600080fd5b81356001600160a01b0381168114609657600080fd5b939250505056fea2646970667358221220668c55a9c6245573c0e2646b5cc7f11a5ad5423e7c2a22d9c78411597d60f6c864736f6c63430008150033",
    "linkReferences": {}
  },
  "methodIdentifiers": {
    "tokenToWethPrices(address)": "0ed45c8e"
  },
  "id": 2
}